:040000005CEF00F0C1
:100008002B829DA60AEF00F00CEF00F05AEF00F0EB
:100018009EA611EF00F013EF00F05AEF00F0265003
:10002800D8A419EF00F01BEF00F02CEF00F0C9285E
:10003800D8A421EF00F023EF00F028EF00F0010E24
:10004800266E9E965AEF00F0000EC96E5AEF00F029
:100058002450D8A432EF00F034EF00F03AEF00F06B
:10006800C9CF22F0010E246E25EF00F02550D8A448
:1000780040EF00F042EF00F04AEF00F0C9CF21F066
:10008800010E256E010E236E25EF00F02A50D8A42C
:1000980050EF00F052EF00F05AEF00F0C9CF29F00E
:1000A800010E286E010E2A6E25EF00F02B9211002A
:0400B800FBEF02F068
:100300000000000E156E5F0E146E000E116E000ED2
:10031000106E09500A10D8B490EF01F092EF01F07E
:10032000A3EF01F0210E156E040E026E000E016E99
:1003300015C003F0046A09EC02F001C012F002C01B
:1003400013F0A7EF01F01F0E156E94EF01F0000EF1
:10035000176E010E166EF2EF01F016C001F017C015
:1003600002F012C003F013C004F0CEEC02F001C0A2
:1003700010F002C011F00B50105C1150800A0D6E8D
:100380000C50800A0D58D8A0C8EF01F0CAEF01F058
:10039000F0EF01F009040A10D8A4D1EF01F0D3EF77
:1003A00001F0E1EF01F0145016240D6E000E17203D
:1003B0000E6EFF0E0D24096EFF0E0E200A6E08EF62
:1003C00002F014500D6E0E6A16500D5E17500E5A44
:1003D000010E0D24096E000E0E200A6E08EF02F0C9
:1003E000164A172A15500D6E0E6A010E0D26000EC4
:1003F0000E2216500D5C0E50800A0F6E1750800AA8
:100400000F58D8B006EF02F008EF02F0ADEF01F0A0
:100410001200000E066E04BE12EF02F010EF02F0A2
:1004200018EF02F0036C041ED8B0042A010E066E09
:1004300002BE1FEF02F01DEF02F025EF02F0016C8B
:10044000021ED8B0022A010E061A000E086E000E17
:10045000076E03500410D8B430EF02F032EF02F010
:100460005AEF02F0010E056E3AEF02F0D890033613
:100470000436052A04AE3FEF02F041EF02F036EFFA
:1004800002F0D890073608360350015C0450025839
:10049000D8A04DEF02F04FEF02F054EF02F00350FE
:1004A000015E0450025A0780D89004320332052EB0
:1004B00041EF02F00650D8B460EF02F062EF02F0B4
:1004C00066EF02F0076C081ED8B0082A07C001F0DA
:1004D00008C002F01200000E266E000E286ED3989F
:1004E000D38AD38CD08EF28EF28C9D86B6EC02F03D
:1004F000E1EC02F0EFEC02F0010E296E2350D8B4CB
:1005000084EF02F086EF02F09CEF02F0000E236E03
:1005100021501E6E1D6A22501D241F6E000E1E20CB
:10052000206E29C009F00A6A1FC00BF020C00CF031
:1005300081EC01F00950796E2A50D8B4A2EF02F094
:10054000A4EF02F0A6EF02F0000E2A6E2850D8B4F5
:10055000ACEF02F0AEEF02F07EEF02F0000E286E7C
:1005600006EC03F07EEF02F05CEF00F093908A90CF
:100570008A805B0E016EE80EE82EFED7012EFCD7B6
:100580008A90030E026E180E016E0C0EE82EFED736
:10059000012EFCD7022EFAD700D012000150030220
:1005A000F3CF05F0F4CF06F001500402F350062615
:1005B00002500302F350062605C001F006C002F007
:1005C00012006F986F8A6F9C6F807F847F869B0E6E
:1005D0007B6E000E7A6E5F0E796E7E8E12009488AE
:1005E000949E948AC79EC698C79CC680C692C684AD
:1005F000C696C68A120000EE1FF00C0EEE6AE806E0
:10060000FDE12B902B9200016BEF02F0000E246EA7
:0E061000000E256E000E2A6E000E266E1200E1
:020000040030CA
:0E000000FFC90E3E3C9D81FF0FC00FE00F4078
:00000001FF
