:040000005CEF00F0C1
:1000080030829DA60AEF00F00CEF00F05AEF00F0E6
:100018009EA611EF00F013EF00F05AEF00F0275002
:10002800D8A419EF00F01BEF00F02CEF00F0C9285E
:10003800D8A421EF00F023EF00F028EF00F0010E24
:10004800276E9E965AEF00F0000EC96E5AEF00F028
:100058002A50D8A432EF00F034EF00F03AEF00F065
:10006800C9CF2DF0010E2A6E25EF00F02950D8A433
:1000780040EF00F042EF00F04AEF00F0C9CF2EF059
:10008800010E296E010E256E25EF00F02850D8A428
:1000980050EF00F052EF00F05AEF00F0C9CF2CF00B
:1000A800010E266E010E246E25EF00F0309211002D
:0400B800CCEF02F097
:100300000000000E156E5F0E146E000E116E000ED2
:10031000106E09500A10D8B490EF01F092EF01F07E
:10032000A3EF01F0210E156E040E026E000E016E99
:1003300015C003F0046A09EC02F001C012F002C01B
:1003400013F0A7EF01F01F0E156E94EF01F0000EF1
:10035000176E010E166EF2EF01F016C001F017C015
:1003600002F012C003F013C004F0E0EC02F001C090
:1003700010F002C011F00B50105C1150800A0D6E8D
:100380000C50800A0D58D8A0C8EF01F0CAEF01F058
:10039000F0EF01F009040A10D8A4D1EF01F0D3EF77
:1003A00001F0E1EF01F0145016240D6E000E17203D
:1003B0000E6EFF0E0D24096EFF0E0E200A6E08EF62
:1003C00002F014500D6E0E6A16500D5E17500E5A44
:1003D000010E0D24096E000E0E200A6E08EF02F0C9
:1003E000164A172A15500D6E0E6A010E0D26000EC4
:1003F0000E2216500D5C0E50800A0F6E1750800AA8
:100400000F58D8B006EF02F008EF02F0ADEF01F0A0
:100410001200000E066E04BE12EF02F010EF02F0A2
:1004200018EF02F0036C041ED8B0042A010E066E09
:1004300002BE1FEF02F01DEF02F025EF02F0016C8B
:10044000021ED8B0022A010E061A000E086E000E17
:10045000076E03500410D8B430EF02F032EF02F010
:100460005AEF02F0010E056E3AEF02F0D890033613
:100470000436052A04AE3FEF02F041EF02F036EFFA
:1004800002F0D890073608360350015C0450025839
:10049000D8A04DEF02F04FEF02F054EF02F00350FE
:1004A000015E0450025A0780D89004320332052EB0
:1004B00041EF02F00650D8B460EF02F062EF02F0B4
:1004C00066EF02F0076C081ED8B0082A07C001F0DA
:1004D00008C002F01200D398D38AD38CD08EF28E4B
:1004E000F28C9D86B4EC02F0F3EC02F001EC03F028
:1004F000000E216E2550D8B480EF02F082EF02F09A
:1005000098EF02F02E501E6E1D6A2D501D241F6E96
:10051000000E1E20206E21C009F00A6A1FC00BF0D9
:1005200020C00CF081EC01F00950796E000E256EB0
:100530002450D8B49EEF02F0A0EF02F0A4EF02F036
:100540002CC021F0000E246E2650D8B4AAEF02F081
:10055000ACEF02F07AEF02F0000E266E0DEC03F025
:100560007AEF02F05CEF00F093908A908A805B0E45
:10057000016EE80EE82EFED7012EFCD78A90030EFE
:10058000026E180E016E0C0EE82EFED7012EFCD75F
:10059000022EFAD700D012002C0EF66E060EF76E61
:1005A000000EF86E0900F5CF2FF000EE22F00D0ED0
:1005B000EE6AE806FDE13090309200016BEF02F048
:1005C00001500302F3CF05F0F4CF06F0015004020E
:1005D000F350062602500302F350062605C001F030
:1005E00006C002F012006F986F8A6F9C6F807F8444
:1005F0007F869B0E7B6E000E7A6E5F0E796E7E8E0E
:1006000012009488949E948AC79EC698C79CC68000
:10061000C692C684C696C68A1200000E2A6E000EC6
:0D062000296E000E286E000E276E1200FFDE
:020000040030CA
:0E000000FFC90E3E3C9D81FF0FC00FE00F4078
:00000001FF
